:1012030041540D0A0041542B434D47463D310D0ACD
:101213000041542B434D47533D002239383736356F
:10122300343332313022000D0A004C504720414CF8
:1012330045525421204761733A002050504D2054A9
:1012430068726573686F6C643A002050504D0020DB
:10125300204C5047204445544543544F52202000CE
:101263002020496E697469616C6973696E67202017
:10127300004741533A0054483A200020414C52540D
:0D12830000205741524E00205341464500C7
:0215C200C10066
:10153300E4FDFCC3ED9FEC9E5015E4FBFA0BBB00EE
:0F154300010AEB646E4A70F50DBD00010C80E4E7
:011552002276
:0D15A800AE071FEE6006D2B5C2B580F4227A
:10149C00EF1392A3D2A17F021215A8C2A1D2A07FF2
:1014AC00021215A8C2A020B2FD7F501215A830B2AE
:0714BC00FDD2A2AF80C2A225
:0114C3002206
:100E3100EF5440C41313540325E0FEEF5480C41350
:100E4100131354012EFEEF5420C413540725E0253B
:100E5100E02EFEEF5410C4540F75F008A42EFEEFDF
:100E61005408131313541FC454F02EFEEF540413EB
:100E710013543FC43354E02EFEEF5402FDC31375E7
:100E8100F040A42EFEEF540175F080A42EFF7003F4
:100E9100FEFF22AC07E4120B21E4FBFA797F7843D1
:100EA100120A01E4FBFA79A078401208F88F298E22
:100EB100288D278C26E4FFFE7DA07C40AB29AA2843
:100EC100A927A826120A9E40028065AB29AA28A953
:100ED10027A826E4FFFE7DA07C40120803E4FBFA6C
:100EE10079A078411208F8AB29AA28A927A82612C7
:100EF1000A01E4FBFA79207841120A01753552752D
:100F010034B875331E7532C0120F5D7B007A80795B
:100F11007278441208F88F2D8E2C8D2B8C2AE4FFC9
:100F2100FEFDFCAB2DAA2CA92BA82A120A9E500467
:100F3100E4FEFF227F007E3C7D1C7C46AB2DAA2C6B
:100F4100A92BA82A120A9E600740057E277F0F223F
:0B0F5100AF2DAE2CAD2BAC2A120B55BF
:010F5C002272
:10139900EF5440C41313540325E0FEEF5480C413E3
:1013A900131354012EFEEF5420C413540725E025CE
:1013B900E02EFEEF5410C4540F75F008A42EFEEF72
:1013C9005408131313541FC454F02EFEEF5404137E
:1013D90013543FC43354E02EFEEF5402C31375F087
:1013E90040A42EFEEF540175F080A42EFF7E007CF0
:0D13F900037DE8120C677C007DFF020C797B
:0515BD00D2A6C2A62227
:071570007E001215337F38E5
:10157700C2A4C2A58F901215BD7F027E000215334B
:101553007C00AF03AE02120C797C007D0A120C7979
:04156300ED2430FF44
:09156700D2A4C2A58F900215BDAB
:1014C4008B268A278928AB26AA27A928120C4E60C6
:1014D400130528E5287002052714F9120C4EFF1293
:0514E400156780E22203
:10159800EF6006ED44C0FF8004ED4480FF0215773C
:10145D00AB07AA06D3EB940FEA942740047A277BB7
:10146D000F7C037DE8AF03AE02120C79EF2430FF41
:10147D001215677D641215537D0A121553AE02AF16
:0F148D00037C007D0A120C79ED2430FF021567F5
:1014E9007F321215707F051215707F011215707FFA
:1014F9000C1215777F061215777F011215777F0277
:051509007E0002153315
:10158700759850438920758BFD758DFDD28ED29944
:011597002231
:0815B5003099FDC2998F9922C3
:10150E008B2A8A2B892CAB2AAA2BA92C120C4E6063
:10151E0013052CE52C7002052B14F9120C4EFF123C
:05152E0015B580E2226A
:04140600AB07AA0680
:10140A00E4F52FEB4A70057F300215B5EB4A602AE6
:10141A007C007D0AAF03AE02120C79ED2430FFAED8
:10142A002F052F742A2EF8A6077C007D0AAF03AE7B
:10143A0002120C79AA06AB0780D2E52F14FEC3EE7E
:10144A0064809480400C742A2EF8E6FF1215B51EAB
:02145A0080EC24
:01145C00226D
:10131C008E268F278C288D297BFF7A127903121544
:10132C000E7FF47E011215337BFF7A1279081215A9
:10133C000E7FF41215337BFF7A12791412150E7B83
:10134C00FF7A12791D12150E7BFF7A12792A12156B
:10135C000E7FE87E031215337BFF7A12792D12155E
:10136C000EAF27AE261214067BFF7A12793D1215AA
:10137C000EAF29AE281214067BFF7A12794D121586
:0D138C000E7F1A1215B57FB87E0B021533C7
:101074001214E9121587C2B5C2A2C2A0C2A1C2B796
:10108400C2B4E4FDFF1215987BFF7A127952121450
:10109400C4E4FD7F011215987BFF7A127963121460
:1010A400C47FDC7E051215337F011215777F027E23
:1010B40000121533E4FF12149CAD077F0112149C37
:1010C4008F21AF05120E318E228F23AF2112139977
:1010D4008E248F25C3E52394C8E52294004003D3CE
:1010E4008001C392B4C3E5239525E52295244014D9
:1010F400D2B7200013AD25AC24AF23AE2212131CAB
:10110400D2008004C2B7C200E4FDFF1215987BFF31
:101114007A1279741214C4AF23AE2212145D7BFFC9
:101124007A12794D1214C4E4FD7F011215987BFFE5
:101134007A1279791214C4AF25AE2412145D30B733
:10114400087BFF7A12797E800F7BFF30B4067A1217
:10115400798480047A12798A1214C47FF47E01128D
:0511640015330210B874
:10080000020BC1E86480F8E933E83360110460F05A
:10081000ED33EC337009E8FCE9FDEAFEEBFF22045E
:1008200060DED3EB9FEA9EE99DE8C2E78CF0C2F759
:1008300095F0400CE8CCF8E9CDF9EACEFAEBCFFB25
:10084000120B8C85D0F05804700320D5B3E80470E7
:10085000075002B2D5020BCB92D5EC0460F7E4CC82
:10086000C0E0C398F8603B94186008400DD0E0FBEE
:10087000020BA3E4FBFAC9FC8028E830E406E4C9D3
:10088000FBE4CAFCE830E305E4C9CACBFCE8540742
:100890006010F8C3E913F9EA13FAEB13FBEC13FC4D
:1008A000D8F130F52FC3E49CFCEF9BFFEE9AFEEDF0
:1008B00099FDD0E0FBEF4E4D4C701222DB03020B92
:1008C000C8EC2CFCEF33FFEE33FEED33FDED30E7EB
:1008D000EB020BA3EF2BFFEE3AFEED39FDD0E0FB70
:1008E00050130BBB0003020BCBED13FDEE13FEEF19
:0808F00013FFEC13FC020BA343
:1008F800EC4D6011E8497017ED33EC3304600DE4FA
:10090800FCFFFEFD22E933E8330470F8020BC11244
:100918000B8C58046009E4CC248150062850090245
:100928000BCB284003020BC8C0E0EB4A7044B980E7
:1009380006D0E0FB020BB7EF4E701CBD8008EBFF42
:10094800EAFEE9FD80EBE98DF0A4FEE5F00209E19D
:10095800E9CDF9EAFEEBFFEF89F0A4FCE5F0CE89DA
:10096800F0A42EFFE435F0CD89F0A42DFEE435F097
:100978008067EF4E7005BD80D780C3EF8BF0A4ACC5
:10098800F0EE8BF0A42CFCE435F0F8EF8AF0A42C00
:10099800E5F038FCE433CB8DF0A42CFCE5F03BF813
:1009A800EE8AF0A42CFCE5F038F8E433CF89F0A403
:1009B8002CFCE5F038CF3400CE89F0A42FFFE5F009
:1009C8003EFEE433C98DF0A42EFEE5F039CD8AF061
:1009D800A42FFFE5F03EFEE43DFD33D0E0FB5007D9
:1009E8000BBB000F020BCBEC2CFCEF33FFEE33FEFE
:0609F800ED33FD020BA32C
:1009FE00020BCBEC5D046005E859047003020BC1D9
:100A0E00120B8C580460F6EC4860F2EC7004FDFE9C
:100A1E00FF22C860DB2481C85009C39860025006CB
:100A2E00020BC89850CAF582E9294B4A7005AB8271
:100A3E00020BB775F0007C1A7880C3EF9BEE9AED2F
:100A4E0099400DC3EF9BFFEE9AFEED99FDE842F043
:100A5E00DC23ACF0D0E0FFD0E0FED0E0FDAB822096
:100A6E00E7101BEB60BAEC2CFCEF33FFEE33FEED20
:100A7E0033FD020BA3E803F830E705C0F075F00074
:100A8E00EF2FFFEE33FEED33FD40B830E7C280AA04
:100A9E0074F8CC6480CCC86480C8F58204604FC3FF
:100AAE00EB9FF5F0EA9E42F0E99D42F0E89C45F09E
:100ABE00603C501DE5825FFFE582D313CB5BCBF428
:100ACE002B5582FB50280ABA002409B90020088051
:100ADE001DE5825BFBE582D313CF5FCFF4C3132FEB
:100AEE005582FF50090EBE00050DBD00010CC3EB73
:100AFE009FF5F0EA9E42F0E99D42F0E89C45F060D9
:090B0E0007CC4820E701B3EC22FA
:100B170075F020800E75F010800575F0087D007E59
:100B2700007F003392D530D503120CCEEC33401042
:100B3700EF33FFEE33FEED33FDEC33FCD5F0ED2262
:0E0B4700E5F0247EA2D513CC92E7CDCEFF229E
:100B5500EDD2E7CD33EC3392D524814006E4FFFE98
:100B6500FDFC22FCE4CFCECDCC24E0501174FF80F7
:100B7500EDC3CC13CCCD13CDCE13CECF13CF047094
:070B8500F030D5DE020CCEBA
:100F5D008F318E308D2F8C2EE4FFFE7D807C3FAB4C
:100F6D0031AA30A92FA82E120A9E7009AF31AE30CA
:100F7D00AD2FAC2E22AF31AE30AD2FAC2E120BD625
:100F8D00FBAF35AE34AD33AC32120BD6FFBF01081B
:100F9D00E4FFFE7D807C3F22EF64046022EB64045D
:100FAD00601DBB0127E4FFFEFDFCAB35AA34A93360
:100FBD00A832120A9E60084006E4FFFEFDFC227472
:100FCD00FFF535F534F533F53202106BE4F536F5F2
:100FDD0037FFFEFDFCAB31AA30A92FA82E120A9EB9
:100FED00504BAF35AE34AD33AC32120B558E368F10
:100FFD0037AC36AD37EC120B1CC8ECC8C9EDC9CAFD
:10100D00EECACBEFCBAF35AE34AD33AC32120803F5
:10101D00E4FBFAF9F8120A9E70A5AF31AE30AD2F90
:10102D00AC2E120BF08F318E308D2F8C2EAF31AE4A
:10103D0030AD2FAC2E120D30AB35AA34A933A832FA
:10104D001208F81211A18F358E348D338C32E5379D
:10105D0030E00B120BF08F358E348D338C32AF3573
:07106D00AE34AD33AC3222BA
:100B8C00E9D2E7C933E833F892D5EDD2E7CD33ECAF
:070B9C0033FC5002B2D52228
:100BA300EC30E7100FBF000C0EBE00080DBD0004B3
:100BB3000BEB6014A2D5EB13FCED92E7FD2274FF5F
:100BC300FCFDFEFF22E480F8A2D574FF13FC7D80B8
:030BD300E480EFCC
:100BD600ED33EC33601004700FED547F7005740232
:0A0BE60092E0227404220422E422AB
:100BF000ED33EC33600A047003BD8004ECB2E7FC13
:010C000022D1
:1011690033DA929E35B16011377FE5FE39218489E2
:101179003AAEC3FF3C1D955B3D6358473E75FDF094
:101189003F3172183F800000C2D5020BCB020BC160
:10119900BD80FA50F3020BC8ED33EC330460F17BE8
:1011A9003B7AAA79B8783F1208F8ED33EC3392D537
:1011B900247B5011A2D570DB500BED4480240450E0
:1011C90004A2D580CEEFFBEEFAEDF9ECF8120B553F
:1011D900EFF582F404FC120B21120807C08290116A
:1011E900697409120C10ED33CC33D0F092D525F087
:0A11F900A2D57001C313CC13FD2230
:100CFC003E9248DA3ECCCCCD3F2AAAAB4000000055
:100D0C003F8000003F9837F03FB504F33FD744FCD9
:100D1C003E3172173EB172173F0515913EDE5BD91D
:100D2C00D2018002C201EDD2E7F8CD33EC3304706E
:100D3C000BBD800592D5020BCB020BC140FBD3142B
:100D4C0060F2F5F07C3FEE7A00C39496C8948B4029
:100D5C00230AC89469C8941A401A0AC89468C8949B
:100D6C001F40110AC8945AC89425400805F07A000F
:100D7C00CDC2E7CDC0F08C388D398E3A8F3BEA234B
:100D8C0023C0E0240CF582E4340DF583120CEC1234
:100D9C000807ECC0E0EDC0E0EEC0E0EFC0E0120CE4
:100DAC00DCA838A939AA3AAB3B120803D0E0FBD037
:100DBC00E0FAD0E0F9D0E0B2E7F8120A018C388DF5
:100DCC00398E3A8F3B900CFC7403120C01A838A995
:100DDC0039AA3AAB3B1208F8D0E0600F2418F58220
:100DEC00E4340DF583120CEC1208078C388D398E17
:100DFC003A8F3BD0E0C3947FFDE49400FC120B1CB3
:100E0C007B187A727931783F1208F8A838A939AA78
:100E1C003AAB3B12080730010B7BD97A5B79DE7851
:050E2C003E1208F8224F
:100C0100C0E0EFFBEEFAEDF9ECF81208F8D0E0F5F0
:100C1100F0EFFBEEFAEDF9ECF8120CDCA3A3A3A3C1
:100C2100E8C0E0E9C0E0EAC0E0EBC0E0C0F01208D3
:100C3100F8120CECA3A3A3A3120807D0F0D0E0FB99
:0D0C4100D0E0FAD0E0F9D0E0F8D5F0D422F0
:0300000002129059
:0C129000787FE4F6D8FD75813B0212D790
:100C4E00BB010689828A83E0225002E722BBFE02A4
:090C5E00E32289828A83E49322D7
:100C6700EF8DF0A4A8F0CF8CF0A428CE8DF0A42EA1
:020C7700FE225B
:100C7900BC000BBE0029EF8DF084FFADF022E4CC5F
:100C8900F875F008EF2FFFEE33FEEC33FCEE9DEC28
:100C9900984005FCEE9DFE0FD5F0E9E4CEFD22ED6E
:100CA900F8F5F0EE8420D21CFEADF075F008EF2FB8
:100CB900FFED33FD4007985006D5F0F222C398FDA9
:050CC9000FD5F0EA2246
:0E0CCE00C3E49FFFE49EFEE49DFDE49CFC2237
:100CDC00E493FC740193FD740293FE740393FF225E
:100CEC00E493F8740193F9740293FA740393FB225E
:10129C00021074E493A3F8E493A34003F68001F2E4
:1012AC0008DFF48029E493A3F85407240CC8C33353
:1012BC00C4540F4420C8834004F456800146F6DF22
:1012CC00E4800B01020408102040809015C2E47EDB
:1012DC00019360BCA3FF543F30E509541FFEE49317
:1012EC00A360010ECF54C025E060A840B8E493A3DE
:1012FC00FAE493A3F8E493A3C8C582C8CAC583CA09
:10130C00F0A3C8C582C8CAC583CADFE9DEE780BEC0
:0115C4000026
:00000001FF
